:10034300BBF0D4D6C0B4C1CB00C8CED2E2BCFCC88B
:10035300A1CFFB00200054656D0048756D00504D22
:1003630000414D00C4D6D6D3A3BABFAA002B004880
:10037300656D003361646420346469666600D0DEB1
:10038300B8C4C3EB00D0DEB8C4B7D600D0DEB8C45F
:10039300CAB100D0DEB8C4C8D500D0DEB8C4D4C258
:1003A30000D0DEB8C4C4EA006B6579332D3E414DFD
:1003B300504D6368616E676500C4D6D6D3C4A3CAC3
:1003C300BD003A00D2F4C0D6A3BABDDCC4E1B9EA99
:1003D30000D2F4C0D6A3BABCC7C4EE00D2F4C0D6D0
:1003E300A3BACED2BCC7B5C300D2F4C0D6A3BACB8E
:1003F300AED0C7BCC700D2F4C0D6A3BA43727565EA
:100403006C00D7B4CCACA3BAB9D800D7B4CCACA3E6
:10041300BABFAA00C7EBD1A1D4F1D2F4C0D6003140
:100423002EBDDCC4E1B9EA20202020203C2D00327F
:100433002EBCC7C4EE202020202020202020003303
:100443002ECED2BCC7B5C3202020202020200031CF
:100453002EBDDCC4E1B9EA20202020202020003278
:100463002EBCC7C4EE202020202020203C2D0033AA
:100473002ECED2BCC7B5C320202020203C2D003473
:100483002ECBAED0C7BCC720202020203C2D00346B
:100493002ECBAED0C7BCC720202020202020003583
:1004A3002E437275656C2009202020203C2D00C44A
:1004B300D6D6D3B5BDC1CB005332D1A15333BDF88A
:1004C3005334CDCB00312ED6F7D2B3C3E620202050
:1004D30020202020202000322ECAB1BCE4D0DEB878
:1004E300C42020202020202000332EC9E8D6C3C4F6
:1004F300D6D6D32020202020202000312ED6F7D29C
:10050300B3C3E62020202020203C2D00322ECAB188
:10051300BCE4D0DEB8C420202020202000312ED619
:10052300F7D2B3C3E6202020202020202000322E43
:10053300CAB1BCE4D0DEB8C4202020203C2D003357
:100543002EC9E8D6C3C4D6D6D3202020202020002D
:10055300332EC9E8D6C3C4D6D6D3202020203C2DC1
:1005630000312ED6F7D2B3C3E6202020202020204E
:1005730000342ECCECC6F8C4A3CABD202020203CF6
:100583002D00342ECCECC6F8C4A3CABD20202020F5
:10059300202000352ED2F4C0D6D1A1D4F1202020C2
:1005A300203C2D00D4DACFDFBBF1C8A1CCECC6F8D8
:1005B30000B3E7D0C2D1A7CCC3C7E3C1A6B4F2D47A
:1005C300EC00C7E7CCEC00CACABACFB4B5BFD5B507
:1005D300F700B6E0D4C600CACABACFBBA7CDE2D4EF
:1005E300CBB6AF00C9D9D4C600C7E7BCE4B6E0D4E4
:1005F300C600D2F5CCEC00CACABACFB4F4CBDEC97C
:10060300E100D0A1D3EACCEC00BAF4CEFCD0C2CF47
:10061300CABFD5C6F800D6D0D3EACCEC00CACABA52
:10062300CFB5E3CDE2C2F400B1A9D3EACCEC00CA62
:10063300CABACFCBAFBEF5202000D4C20020202001
:0D064300202020202020202020202020200A
:102036000263180E01740001690101660101440082
:0F204600016201016101014300014500016500D4
:1018800085734C85714A857049856F48856E47859B
:101890006D467B007A007946AD7422EE93FF741991
:1018A0002EF8A607E56875F002A42EF582E435F05F
:1018B000F583E58222F583E493FF741B2EF8A607D7
:1018C0000E22FDE433FC743F2DF58274163CF58343
:1018D000E493FD22E564FB3395E0FA750C02227B6C
:1018E000007A00794D7F01227B007A0079587F02CF
:1018F000227B007A00796D22E56BFB7A00750C0281
:10190000227BFF7A0379597D017F03227D007BFFD3
:051910007E000200F65C
:101D49007F0A7E00121F267F067E00121F267F0B48
:101D59007E00121F26121DF18F087F01121D917A34
:101D69000379437F02121C427F03121D917A037982
:101D79004C7F04121C42E50860DB7F137E00121FB2
:071D890026122088E4F54456
:0D1D9000227BFF7A037943121C427BFF2265
:10169F007BFF7A0379577D087F01121AA6209103E9
:1016AF00121D49E54470031210BB121901121AA63C
:1016BF001218F87D037F031219157BFF7A03795DEA
:1016CF007D057F03121AA6E56A1218FA7D077F03BC
:1016DF001219151218F1121E4412188012132A1221
:1016EF0018DF121C421218E8121C42E574640170D4
:1016FF0023E56FD3940C40087BFF7A037961800D4B
:10170F00E56FC3940C500D7BFF7A0379647D067FE0
:10171F0002121AA6E544B401187BFF7A0379677F9A
:10172F0004121C42E548B56408E547B56303121D72
:02173F009D22E9
:101741007BFF7A0379707D087F01121AA6E5447048
:10175100031210BB121901121AA61218F87D037F89
:10176100031219157BFF7A0379727D057F03121A23
:10177100A6E56A1218FA7D077F031219151218F1EE
:10178100121CF41218F1121E4412188012132A129C
:1017910018DF121C421218E8121C42E57464017031
:1017A10023E56FD3940C40087BFF7A037961800DA8
:1017B100E56FC3940C500D7BFF7A0379647D067F3E
:1017C10002121AA6E544B401187BFF7A0379677FF8
:1017D10004121C42E548B56408E547B56303121DD0
:0217E1009D2247
:1010BB00780A7C007A06793D7F0312190C780D7C37
:1010CB00007A0679407F1012190C1218F1121E4487
:1010DB007522007523007524677B007A0079461210
:1010EB001FA3856708856809E54C75F00A12011C7A
:1010FB00AFF0EF25E0F51DAF4CEF3395E0FEEF249D
:10110B00D0FFEE3407FE7C007D0C120252ED25E081
:10111B002414F51E7B007A007946121B7FEF25E025
:10112B0025E0FFE51D7003751D16E4FEEE251D126F
:10113B0018C2740D2EF8A605EE251E1218C2740FD8
:10114B002EF8A605EEFDEF2DFDE433FC74DB2DF53B
:10115B008274153CF583E493FB74112EF8A603748B
:10116B00DD2DF58274151218CD74132EF8A605E536
:10117B00081218A6246AF582E5833416F583E493E6
:10118B00FD74152EF8A605850A17850B180EEE644F
:10119B00027099E509D3940A5018E4FE9016841254
:1011AB00189B2488F582E58334161218B5BE02EC21
:1011BB00803DE509D3940A401FE509D394135018D9
:1011CB00E4FE90167E12189B2474F582E583341688
:1011DB001218B5BE02EC8017E4FEEE9016861218BC
:1011EB009C2460F582E58334161218B5BE02EB7BA6
:0A11FB00007A00790D7F04021C4207
:100BD3001218DF121C421218E8121C427BFF7A0320
:100BE30079767F04121C42E565B407005057900BD9
:100BF300F8F8282873020C0D020C15020C1D020CC8
:100C030025020C2D020C35020C3D7BFF7A03798102
:100C1300802E7BFF7A03798880267BFF7A03798F86
:100C2300801E7BFF7A03799680167BFF7A03799D7A
:100C3300800E7BFF7A0379A480067BFF7A0379AB6E
:100C43007F03121C42E576B4020E0565E56575F077
:100C5300078485F065020DB9E57664036009E576DE
:100C630064046003020DB9E565702AE576B40302F6
:100C7300056DE576B40402156DE56DC3940050056A
:100C8300756D3B800AE56DD3943B4003E4F56D122B
:100C9300188F120DBFE5656401702DE576B403026C
:100CA300056EE576B40402156EE56EC39400500537
:100CB300756E3B800AE56ED3943B4003E4F56E8585
:100CC3006E47121892120DBFE56564027033E57624
:100CD300B40302056FE576B40402156FE56FC394A0
:100CE300005005756F17800AE56FD394174003E42E
:100CF300F56F856F4812189212132A1218E8121C06
:100D030042E5656403702DE576B403020570E5766C
:100D1300B404021570E570D39400500575701F80FC
:100D23000AE570D3941F400375700185704912184A
:100D330092120DCEE5656404702DE576B4030205C9
:100D430071E576B404021571E571D394005005750D
:100D5300710C800AE571D3940C40037571018571A0
:100D63004A121892120DCEE56564057033E576B428
:100D730003020573E576B404021573E573D3940097
:100D83005005757363800AE573D3946340037573E9
:100D93000185734C12189212132A1218DF121C4287
:100DA300E565B40611E57470057574018008E57492
:100DB300B40103E4F5741218F1021CF412132A7B34
:100DC300007A0079587F02121C422212132A7B00F8
:0A0DD3007A00794D7F01121C4222C4
:100F68007BFF7A0379BC7F01121C421218D47D01E1
:100F78007F031219157BFF7A0379C57D027F03125F
:100F88001AA6E5631218D67D037F03121915E561C9
:100F9800B401087BFF7A0379C78032E561B402089F
:100FA8007BFF7A0379D48025E561B403087BFF7A57
:100FB8000379DF8018E561B404087BFF7A0379ECD4
:100FC800800BE561B4050B7BFF7A0379F97F041286
:100FD8001C42E54470087BFF7A047905800BE544E0
:100FE800B4010B7BFF7A04790E7F02121C42E5766E
:100FF800B4020C0545E54575F0038485F04522E506
:101008007664036009E576640460030210BAE54576
:101018007033E576B4030405638007E576B404020B
:101028001563C3E56364809480500575633B800C49
:10103800D3E563648094BB4003E4F563E563121869
:10104800D67D038035E54564017034E576B4030444
:1010580005648007E576B404021564C3E56464801A
:1010680094805005756417800CD3E5646480949768
:101078004003E4F5641218D47D017F03021915E5D5
:10108800456402702DE54470057544018008E54407
:10109800B40103E4F544E54470087BFF7A0479055C
:1010A800800BE544B4010B7BFF7A04790E7F0212B2
:0310B8001C4222B5
:10143300121DF18F087BFF7A0479177F01121C427A
:10144300E562B401137BFF7A0479227F02121C4206
:101453007BFF7A047932800CE562B402101214F334
:101463007A04796212150D7A0479428049E562B4EF
:1014730003101214F37A04793212150D7A04797277
:101483008034E562B404167BFF7A0479327F02125A
:101493001C427F031215017A0479828019E562B434
:1014A30005197F021215017A0479927F03121C42F7
:1014B3007BFF7A0479A27F04121C42E508B402126E
:1014C3000562E562D3940550030214337562010289
:1014D3001433E508B4030985626175690402208841
:0F14E300E5086401600302143312208812120519
:1014F200227BFF7A0479527F02121C427BFF227BFD
:10150200FF7A047942121C427BFF227F03121C42A3
:031512007BFF223A
:101D9D007F0A7E00121F26AF617E00121F267F0B69
:101DAD007E00121F26121DF18F087F01121DE57A8C
:101DBD000479B27F02121C427F03121DE57A03796A
:101DCD004C7F04121C42E50860DB7F137E00121F5E
:071DDD0026122088E4F54402
:0D1DE400227BFF7A0479B2121C427BFF22A1
:10120500121DF18F09E509B4020C0569E569B407FA
:10121500177569018012E509B403028008E509B470
:101225000406756902022088E569640170141212CA
:10123500E57A0479C87F02121C427BFF7A0479DAC9
:101245008018E5696402701C1212E57A0479FE7F44
:1012550002121C427BFF7A05790F1213227A047958
:10126500EC0212DDE569640370111212F37A057957
:10127500311213227A0579420212DDE569640470A0
:10128500141212F37A05790F7F03121C427BFF7A41
:101295000579538043E5696405701B7BFF7A057901
:1012A500647F01121C427F021213187F0312130C74
:1012B5007A0579748022E569640660030212057F68
:1012C500011213187F0212130C7A0579857F031218
:1012D5001C427BFF7A0579967F04121C4202120597
:1012E5007BFF7A0479BB7F01121C427BFF227BFFC7
:1012F5007A0479BB7F01121C427BFF7A0579207F36
:1013050002121C427BFF227BFF7A057942121C42A6
:101315007BFF227BFF7A05790F121C42227F031285
:051325001C427BFF22C9
:101515007BFF7A0579A77F01121C427BFF7A05794B
:10152500B47F04121C42E575B41B0D7A0579C5120A
:1015350015BD7A0579CA803EE575B41C0D7A057925
:10154500D51215BD7A0579DA802CE575B41D087BB1
:10155500FF7A0579E7800BE575B41E0A7BFF7A05EE
:1015650079EC7F02804EE575B41F0F7A0579F51287
:1015750015C77A0579FA7F03803AE575B4240F7AA1
:101585000679051215C77A06790C7F038026E5755D
:10159500B4250F7A0679191215D17A0679207F03B9
:1015A5008012E575B426107A06792B1215D17A06C4
:1015B50079327F03121C42227BFF7F02121C427B81
:1015C500FF227BFF7F02121C427BFF227BFF7F02F3
:0615D500121C427BFF2204
:10212F00759850758920E4F587758DFD758BFDD2F7
:06213F00ACD2AFD28E22EB
:03002300020DDDEE
:100DDD00C0E0C0F0C083C082C0D075D000C000C0DC
:100DED0001C002C003C004C005C006C0072098039F
:100DFD00020F4DC29885996CE56CC3941B40038519
:100E0D006C75E56CB40111E574B4010675740002DE
:100E1D000F4D757401020F4DE56CB40211E544B42C
:100E2D000106754400020F4D754401020F4DE56C2E
:100E3D00B40305056F020F4DE56CB40405156F0283
:100E4D000F4DE56CB40505056E020F4DE56CB4064E
:100E5D0005156E020F4DE56CB40705056D020F4DBE
:100E6D00E56CB40805156D020F4DE56CB40905056B
:100E7D0073020F4DE56CB40A051573020F4DE56C49
:100E8D00B40B050571020F4DE56CB40C051571021F
:100E9D000F4DE56CB40D050570020F4DE56CB40EEC
:100EAD00121570E570D394004003020F4D75701F3D
:100EBD00020F4DE56CB40F0FE543B401057543000A
:100ECD00807E7543018079E56CB4100575610180F4
:100EDD006FE56CB411057561028065E56CB41204A3
:100EED000564805CE56CB4130415648053E56CB443
:100EFD0014040563804AE56CB4150415638041E55F
:100F0D006CB416057561038037E56CB41705756112
:100F1D0004802DE56CB418057561058023E56CB46E
:100F2D0019127F0A7E00121F26AF617E00121F2646
:100F3D007F0B8007E56CB41A077F137E00121F2606
:100F4D00D007D006D005D004D003D002D001D000F8
:0B0F5D00D0D0D082D083D0F0D0E032A2
:101A2E00121F6812212F121E957B007A00796A12FE
:101A3E001B19121DF18F76E576B4010B121205E516
:101A4E0066B40103E4F566E566B40111E54370057D
:101A5E0012169F8008E543B40103121741E569246D
:101A6E00FD6021146023146025146027240470C2C5
:101A7E00E543700512169F80B9E543640170B312F9
:101A8E00174180AE120BD380A9120F6880A41215D5
:081A9E0015809F121433809A99
:1021000020202020202020202020202020202020CF
:08211000200020202020200007
:10205F00A2E69281A2E59282A2E49283A2E3928405
:10206F00A2E29285A2E19286139287C2A622AE14B3
:09207F00AF157C007D0A0201FD91
:0821A1007F367EC7DEFEDFFC85
:0121A9002213
:10000300E4FDFCC3ED9FEC9E5015E4FBFA0BBB0033
:0F001300010ABA2EF8BBE0F50DBD00010C80E428
:0100220022BB
:101F68001221A1D2A7C2A7D2A7121F98121F987D2B
:101F7800017F0C1220E71221A17D017F011220E7C9
:101F88001221A11221A17D017F061220E70221A1C1
:0B1F9800E4FD7F301220E71221A1229F
:1020E7008F24ED600312215BC2A4C2A5D2A6E5240A
:0920F700339280E52412205F22DF
:102145008F2412215BD2A4C2A5D2A6E524339280A6
:06215500E52412205F22C8
:0E215B00C2A4D2A5C2A6D2A6E58020E0F3223F
:061C42008B1F8A2089219E
:101C4800EF24FE600F1460111460132403701275E2
:101C58002280800D75229080087522888003752265
:101C6800987D01AF221220E7E4F523AB1FAA20A933
:101C78002112013E60100521E5217002052014F9AA
:101C880012013EFF80027F201221450523E523C370
:041C9800941040D78D
:011C9C002225
:081915008F088D098A0A8B0B73
:10191D00780D7C007D007BFF7A2179127E007F0699
:10192D001200F6E4F513850A14850B15D3E515940D
:10193D0000E5149400402012207DED2430FFE513C6
:10194D00FDE50CC39DFD740C2DF8A60712207D8EB0
:10195D00148F15051380D5E513C3950C5010C3E5F1
:10196D000C9513FF740C2FF87630051380E9740D68
:10197D00250CF8E4F6AD09AF08121FD7E4F513E511
:10198D0013C3950C500E740D2513F8E6FF12214567
:04199D00051380EBC3
:0119A1002223
:101FD700EF24FE601114601514601924037021EDBD
:101FE700247FF5168013ED248FF516800CED2487DA
:101FF700F5168005ED2497F5167D01AF161220E73B
:0120070022B6
:102088007F0112209C7F02121C427F0312209C7F3A
:1020980004021C427BFF7A217900121C427BFF7AE2
:0420A8002179002278
:081AA6008D088B098A0A890BE7
:101AAE00E4F50DEF24FE601214601714601C24037D
:101ABE007058E508247FF50C8016E508248FF50C88
:101ACE00800EE5082487F50C8006E5082497F50CB2
:101ADE007D01AF0C1220E7AB09AA0AA90B12013E39
:101AEE006021C374109508FFE50DC39F5015050BBB
:101AFE00E50B7002050A14F912013EFF122145058D
:0A1B0E000D80D47F027E0012000358
:011B180022AA
:101DF100E4F50AD2A0D2A1D2A2D2A330A00930A187
:101E01000630A20320A3391221A120A005750A01E1
:101E1100801B20A105750A02801320A205750A0303
:101E2100800B20A305750A048003E4F50AE50A6026
:101E31000F30A0FD30A1FA30A2F730A3F41221A196
:021E4100AF0AE6
:011E4300227C
:0E21690081838587898B8D80828486888A8C0D
:09205500077700170001050623BE
:101C9D001201C9900006120157FF75F00A02011CCE
:101CAD00AFF0EF24300201C9AFF0EF24300201C9CB
:101CBD003395E0FEEF24F4FFEE34FFFE7C007D0A49
:101CCD00020252AB1FAA20A9218522827583002210
:101CDD0024309000121201C990000222EF1392934A
:071CED00EFC313FFD29222A6
:10200800C29400C29200D29400E4FE121CE900C2FD
:1020180092000EBE08F5E4FEED139293EDC313FD96
:0D202800D29200C292000EBE08EEC29400DB
:012035002288
:101EE300C29400C29200D29400E4FD121CE900C225
:101EF30092000DBD08F500E4FDA293E433FFC43363
:101F030033335480FCEEC3134CFED29200C29200D2
:101F13000DBD08E5C29400D29200C29300D2930093
:021F2300AF0607
:011F25002299
:101E9500E4FBEB90216993FF121EE374082BF8A66F
:101EA500070BBB07EDE50E6012E4FB74082BF8E6A3
:101EB500FF74772BF8A6070BBB07F0E4FD7F8E12A6
:101EC5002008E4FBEB90217093FF74772BF8E6FD77
:0E1ED5001220080BBB07ED7D807F8E022008D7
:061E44008B1F8A2089219A
:101E4A00E4F522E52290216993FF121EE3121CD0C9
:101E5A00EF1201C90522E522C3940740E6E4F52200
:101E6A00121CD0120157FFC4540F75F00A84E5F012
:101E7A0075F00AA4121CD61201C9EF540F121CD60F
:0A1E8A001201840522E522B407D6F8
:011E9400222B
:10132A008B088A09890A90000774321201C9900051
:10133A00087430121C9D2430900009121C9D9000E4
:10134A000A121CAD90000B742D1201C990000412F0
:10135A001CA3243090000C1201C9900004121CA393
:10136A0090000D121CB590000E742D1201C9900048
:10137A0003121CA3243090000F1201C9900003121B
:10138A001CA3900010121CB5900011E4121CE2126A
:10139A001CA3121CDD121CA3900013121CAD90009A
:1013AA0014743A1201C9900001121CA3243090004F
:1013BA00151201C9900001121CA3AFF0EF2430905E
:1013CA0000161201C9900017743A1201C912013E9F
:1013DA00121CA624309000181201C9EF121CA7AFE4
:1013EA00F0EF24309000191201C990001AE412019A
:1013FA00C9ED64017032AB08AA09A90A9000021269
:10140A000157FFD36480948C401EEF121CBDEF126B
:10141A001CDD120157FF121CBDED2430AB08AA09CE
:09142A00A90A9000131201C92265
:061CF4008B088A09890A31
:101CFA00E4FCAB08AA09A90A8C8275830012015771
:101D0A00FF75F00A84C454F0FEEF75F00A84E5F01A
:101D1A002EFE740B2CF8A6060CBC07D6E4FD7F8EAB
:101D2A00122008E4FCEC90217093FF740B2CF8E667
:0F1D3A00FD1220080CBC07ED7D807F8E02200873
:09218D00007F117E1FDEFEDFFC65
:012196002226
:0A21770000007F067E5DDEFEDFFC47
:01218100223B
:0A21820000007F167E80DEFEDFFC09
:01218C002230
:09219700007F2C7E04DEFEDFFC5B
:0121A000221C
:041F2600AD07AC0651
:101F2A00E4FBFAC2AFD290122182C290122197D258
:101F3A0090ED30E00A12218DC290122177800812AA
:101F4A002177C29012218DECC313FCED13FD0BBB5C
:0D1F5A0000010AEB64084A70D6D290D2AFA5
:011F67002257
:0321AA00DFFE2233
:1020AC00D3EF9400EE940040147D6E7C00ED1D7017
:0D20BC00011CED4C70F7EF1F70E61E80E375
:0120C90022F4
:10211800D2957F021221AAC2957F147E001220ACAC
:07212800D2957F1E0221AADF
:1020CA00E4FEFD3095FD7F081221AAEE25E0FE30E0
:0C20DA0095010E2095FD0DBD08E9AF0634
:0120E60022D7
:101B190012211820955F3095FD7F281221AA1220E5
:101B2900CA8F081220CA8F091220CA8F0A1220CA26
:101B39008F0B1220CA8F107F191221AAE5082509D7
:101B4900FFE433FE7C00EF250AFFEC3EFEEF250B98
:101B5900FFEC3EFEEFB51010ECB5060C85080C85C0
:101B6900090D850A0E850B0FE50C1201B7900001CE
:051B7900E50E1201C998
:011B7E002244
:10093F00004D4AB8000D4A4C000DA5410025AAB63E
:10094F0000056A49007AADBD00025D5200092D47CE
:10095F00005C95BA000A954E000B4A43004B553781
:10096F00000AD54A00955ABF0004BA53000A5B48E3
:10097F0000652BBC00052B50000A934500474AB970
:10098F000006AA4C000AD5410024DAB60004B64A84
:10099F000069573D000A4E51000D2646005E933AFE
:1009AF00000D534D0005AA430036B53700096D4BB6
:1009BF0000B4AEBF0004AD53000A4D48006D25BC16
:1009CF00000D254F000D5244005DAA38000B5A4C04
:1009DF0000056D410024ADB600049B4A007A4BBE62
:1009EF00000A4B51000AA546005B52BA0006D24ED0
:1009FF00000ADA4200355B370000000000000000FB
:100A0F0000000000000000000000000000000000D7
:100A1F0000000000000000000000000000000000C7
:100A2F0096B4A5B5A6A6878888788786A5B3A5A509
:100A3F00A6A6888888788787A5B496A5969688787D
:100A4F007878878795B496A5969788787869788708
:100A5F0096B4A5B5A6A6878888788786A5B3A5A5D9
:100A6F00A6A6888888788787A5B496A5A69688882D
:100A7F007878878795B496A59697887878697887D8
:100A8F0096B4A5B5A6A6878887788786A5B3A5B59A
:100A9F00A6A6888888788787A5B496A5A6968888FD
:100AAF007878878795B496A5969788787879788798
:100ABF0096B4A5B5A5A6878887788786A5B3A5B56B
:100ACF00A6A6878888788787A5B496A5A6968888CE
:100ADF007878878795B496A5969788787879778769
:100AEF0095B4A5B4A5A6878887788786A5C3A5B52D
:100AFF00A6A6878888788787A5B4A6A5A69688888E
:100B0F0078788787A5B496A5969688787879778729
:100B1F0095B4A5B4A5A6978787788786A5C3A5B5ED
:100B2F00A6A6878888788786A5B4A5A5A69688885F
:100B3F0088788787A5B496A59696887878797787E9
:100B4F0095B4A5B4A5A6978787788796A5C3A5B5AD
:100B5F00A6A6878888788786A5B3A5A5A6A6888820
:100B6F0088788787A5B496A59696887878788787AA
:100B7F0095B4A5B4A5A6978787788796A5C3A5B57D
:100B8F00A6A6878888788786A5B3A5A5A6A68888F0
:100B9F0088788787A5B496A596968878787887877A
:100BAF0095B4A5B4A5A69787877887960000001FF0
:100BBF00003B005A0078009700B500D400F30111F4
:040BCF000130014EA2
:1017E30024FBF58274E93EF583120323E4FFFEED47
:1017F30054F0FDE4FC78141202FCA804A905AA061F
:10180300AB07AE35AF36EE3395E0FDFCC30202EB1A
:10181300EB5FFFEA5EFEE95DFDE85CFCE4FBFAF9E1
:10182300F8C30202EB24FBF58274E93EF58322E45C
:10183300F541F542E54014F9E4FFFE7D08FCA801FB
:1018430002030FE534AE33780222900006120157EB
:10185300FF3395E022F520742F2FF582740A3EF5AD
:1018630083E49322E57E5403FEE57F54C078062289
:0D187300AB2EAA2FA93022900004020157CD
:0C0650008E338F348C358D368A378B3812
:10065C00E5347802C333CE33CED8F91218281203FE
:10066C0023EF5460FFE4FEFDFC78051202FCE47BF2
:10067C00011218217020121846C333CE33CED8F98C
:10068C00121828120323EF541FFFEF24FFF53AE44E
:10069C0034FFF539801D121846C333CE33CED8F94A
:1006AC00121828120323EF541FFFEF241EF53AE40F
:1006BC0033F539E53625E0FFE53533FE74B92FF512
:1006CC0082740B3EF5837401932538FFE493353720
:1006DC00CF24FFF53CEF34FFF53BAE33AF347C0059
:1006EC007D04120252ED4C7015D3E5369402E535BB
:1006FC00648094804008053CE53C7002053BC3E5F2
:10070C003C953AE5396480F8E53B648098500302E7
:10071C0007FDE53C953AF53CE53B9539F53B7535E0
:10072C0000753601753F00754001121832C004C0C7
:10073C0005C006C007121846C333CE33CED8F91203
:10074C001828120333D007D006D005D00412181382
:10075C0070030207DE0207E6C3E53C953EE53D6407
:10076C0080F8E53B648098407AE53C953EF53CE5A5
:10077C003B953DF53B0540E5407002053F121846A0
:10078C00C333CE33CED8F91217E370166342FF632E
:10079C0041FFE542454170120536E536700C0535D2
:1007AC0080080536E53670020535121837C004C0CE
:1007BC0005C006C007121846C333CE33CED8F91283
:1007CC001828120333D007D006D005D00412181302
:1007DC007008F53D753E1D020764753D00753E1EA3
:1007EC00020764E53C2401F538E4353BF537020992
:1007FC000AC3E53A953CF53AE539953BF539E534CC
:10080C0015347002153375350075360C121846C345
:10081C0033CE33CED8F9121828120323E4FFFEEDA1
:10082C0054F0FDE4FC78141202FC12181F7007F54A
:10083C003F75400C8006753F0075400D121832C094
:10084C0004C005C006C007121846C333CE33CED839
:10085C00F9121828120333D007D006D005D0041291
:10086C00181370030208E60208EED3E53A953EE54C
:10087C003D6480F8E5396480984070E53A953EF522
:10088C003AE539953DF539E54015407002153FE5DF
:10089C004245417008E5361536700215351218467A
:1008AC00C333CE33CED8F91217E370066342FF631D
:1008BC0041FF121837C004C005C006C00712184605
:1008CC00C333CE33CED8F9121828120333D007D045
:1008DC0006D005D0041218137008F53D753E1D02A4
:1008EC000876753D00753E1E020876C3E53E953AC6
:1008FC00CFE53D9539CF2401F538E43FF537853701
:10090C007E85387FE536AE357806C333CE33CED808
:10091C00F9427FEE427E121846C333CE33CED8F95D
:10092C00248BF58274EB1217E97004FE7F0122E42C
:02093C00FEFFBC
:01093E002296
:101BE400E4F531F532120288FFAEF09000021202E1
:101BF400B3FDACF09000041202B3FBAAF01206503D
:101C0400EF4E6018121867CEC313CE13D8F912180A
:101C1400731201B77531007532018010121867CE46
:101C2400C313CE13D8F91218731201B7E57F543FCA
:0D1C34001218739000011201C9AE31AF32D9
:011C41002280
:101FA30012184DFEEF24D0F526EE3407F5259000E8
:101FB30004121850F5278F28900003121850F529A2
:101FC3008F2A85222E85232F8524307B007A007962
:041FD30025021BE4E4
:101B7F00900003120157F51F12184DFE7C007D0CCB
:101B8F001201EB12187AFD3395E0FCEF2DFFEE3CBE
:101B9F00CF24FFCF34FFFEE51FC3940F5019C3743A
:101BAF000F951F121858C4540FB5200812187A2514
:101BBF00E014FF227F0022E51FB40F037F0022E510
:101BCF001F24F1121858540FB5200712187A25E068
:041BDF00FF227F0062
:011BE30022DF
:1015DB00CEDE2020D0A1BAAEB4F3BAAEC1A2B4BA5B
:1015EB00D3EACBAEBEAAD5DDB4BAB7D6C7E5C3F73F
:1015FB00B9C8D3EAC1A2CFC4D0A1C2FAC3A2D6D66E
:10160B00CFC4D6C1D0A1CAEEB4F3CAEEC1A2C7EF04
:10161B00B4A6CAEEB0D7C2B6C7EFB7D6BAAEC2B68B
:10162B00CBAABDB5C1A2B6ACD0A1D1A9B4F3D1A9F7
:10163B00B6ACD6C100B8D0C1C8C9B9EFBCD7D2D2ED
:10164B00B1FBB6A1CEECBCBAC9EAD3CFD0E7BAA5F1
:10165B00D7D3B3F3D2FAC3AEB3BDCBC8CEE7CEB4B8
:10166B0000D5D2BBB6FEC8CBC4CEE5C1F9C6DFB040
:10167B00CBBEC5CAAEB6ACC0B0B3F5D8A52000D2B0
:10168B00BBB6FEC820CBC4CEE5C1F9C6DFB0CBBE1E
:04169B00C5CAAE000E
:030000000219A240
:0C19A200787FE4F6D8FD75817F0219E91A
:10002600E709F608DFFA8046E709F208DFFA803EBC
:1000360088828C83E709F0A3DFFA8032E309F608A9
:10004600DFFA8078E309F208DFFA807088828C8311
:10005600E309F0A3DFFA806489828A83E0A3F608C5
:10006600DFFA805889828A83E0A3F208DFFA804C9F
:1000760080D280FA80C680D4806980F28033801076
:1000860080A680EA809A80A880DA80E280CA8033DF
:1000960089828A83ECFAE493A3C8C582C8CCC58357
:1000A600CCF0A3C8C582C8CCC583CCDFE9DEE78027
:1000B6000D89828A83E493A3F608DFF9ECFAA9F0A6
:1000C600EDFB2289828A83ECFAE0A3C8C582C8CCFC
:1000D600C583CCF0A3C8C582C8CCC583CCDFEADE15
:1000E600E880DB89828A83E493A3F208DFF980CC77
:1000F60088F0EF60010E4E60C388F0ED2402B40470
:100106000050B9F582EB2402B4040050AF23234516
:06011600822390007673C5
:10011C00C2D530F707B2D563F0FF05F030E70CB26B
:10012C00D5F4048463F0FF05F080018430D502F42B
:02013C0004229B
:10013E00BB010689828A83E0225002E722BBFE02BF
:09014E00E32289828A83E49322F2
:10015700BB010CE58229F582E5833AF583E022505D
:1001670006E92582F8E622BBFE06E92582F8E222A7
:0D017700E58229F582E5833AF583E49322C1
:10018400BB010FF8E58229F582E5833AF583E0287F
:10019400F0225009C58229F8E58226F622BBFE0921
:1001A400C58229F8E22582F222F8EA2583F583E95B
:0301B4009328226B
:1001B700BB010689828A83F0225002F722BBFE0127
:0201C700F32221
:1001C900F8BB010DE58229F582E5833AF583E8F06C
:1001D900225006E92582C8F622BBFE05E92582C818
:0201E900F22200
:1001EB00EF8DF0A4A8F0CF8CF0A428CE8DF0A42E28
:0201FB00FE22E2
:1001FD00BC000BBE0029EF8DF084FFADF022E4CCE6
:10020D00F875F008EF2FFFEE33FEEC33FCEE9DECAE
:10021D00984005FCEE9DFE0FD5F0E9E4CEFD22EDF4
:10022D00F8F5F0EE8420D21CFEADF075F008EF2F3E
:10023D00FFED33FD4007985006D5F0F222C398FD2F
:05024D000FD5F0EA22CC
:10025200C2D5EC30E709B2D5E4C39DFDE49CFCEEC7
:1002620030E715B2D5E4C39FFFE49EFE1201FDC341
:10027200E49DFDE49CFC80031201FD30D507C3E43C
:060282009FFFE49EFE2236
:10028800BB010A89828A83E0F5F0A3E02250068741
:10029800F009E71922BBFE07E3F5F009E319228903
:0B02A800828A83E493F5F07401932236
:1002B300BB0110E58229F582E5833AF583E0F5F089
:1002C300A3E0225009E92582F886F008E622BBFE66
:1002D3000AE92582F8E2F5F008E222E5832AF583AC
:0802E300E993F5F0A3E9932271
:1002EB00EB9FF5F0EA9E42F0E99D42F0E89C45F069
:0102FB0022E0
:1002FC00E8600FECC313FCED13FDEE13FEEF13FFE0
:03030C00D8F12203
:10030F00E86010ECA2E713FCED13FDEE13FEEF1304
:04031F00FFD8F022F1
:10032300E493FC740193FD740293FE740393FF2220
:10033300E493F8740193F9740293FA740393FB2220
:1019AE00021A2EE493A3F8E493A34003F68001F207
:1019BE0008DFF48029E493A3F85407240CC8C3333A
:1019CE00C4540F4420C8834004F456800146F6DF09
:1019DE00E4800B0102040810204080902036E47E43
:1019EE00019360BCA3FF543F30E509541FFEE493FE
:1019FE00A360010ECF54C025E060A840B8E493A3C5
:101A0E00FAE493A3F8E493A3C8C582C8CAC583CAEF
:101A1E00F0A3C8C582C8CAC583CADFE9DEE780BEA7
:01205E000081
:00000001FF
